{
  "contractName": "Election",
  "abi": [
    {
      "constant": true,
      "inputs": [
        {
          "internalType": "string",
          "name": "",
          "type": "string"
        }
      ],
      "name": "voteResult",
      "outputs": [
        {
          "internalType": "uint256",
          "name": "",
          "type": "uint256"
        }
      ],
      "payable": false,
      "stateMutability": "view",
      "type": "function"
    },
    {
      "constant": false,
      "inputs": [
        {
          "internalType": "string",
          "name": "_petName",
          "type": "string"
        }
      ],
      "name": "voting",
      "outputs": [],
      "payable": false,
      "stateMutability": "nonpayable",
      "type": "function"
    },
    {
      "constant": true,
      "inputs": [],
      "name": "getPetResult",
      "outputs": [
        {
          "internalType": "string",
          "name": "",
          "type": "string"
        }
      ],
      "payable": false,
      "stateMutability": "view",
      "type": "function"
    }
  ],
  "bytecode": "0x608060405234801561001057600080fd5b506107ab806100206000396000f3fe608060405234801561001057600080fd5b50600436106100415760003560e01c806358055192146100465780637d5529ec146100c9578063e3393a6d14610198575b600080fd5b61004e610253565b6040518080602001828103825283818151815260200191508051906020019080838360005b8381101561008e578082015181840152602081019050610073565b50505050905090810190601f1680156100bb5780820380516001836020036101000a031916815260200191505b509250505060405180910390f35b610182600480360360208110156100df57600080fd5b81019080803590602001906401000000008111156100fc57600080fd5b82018360208201111561010e57600080fd5b8035906020019184600183028401116401000000008311171561013057600080fd5b91908080601f016020809104026020016040519081016040528093929190818152602001838380828437600081840152601f19601f82011690508083019250505050505050919291929050505061044e565b6040518082815260200191505060405180910390f35b610251600480360360208110156101ae57600080fd5b81019080803590602001906401000000008111156101cb57600080fd5b8201836020820111156101dd57600080fd5b803590602001918460018302840111640100000000831117156101ff57600080fd5b91908080601f016020809104026020016040519081016040528093929190818152602001838380828437600081840152601f19601f82011690508083019250505050505050919291929050505061047c565b005b60606000606060008090505b600180549050811015610445578260026001838154811061027c57fe5b9060005260206000200160405180828054600181600116156101000203166002900480156102e15780601f106102bf5761010080835404028352918201916102e1565b820191906000526020600020905b8154815290600101906020018083116102cd575b505091505090815260200160405180910390205411156104385760026001828154811061030a57fe5b90600052602060002001604051808280546001816001161561010002031660029004801561036f5780601f1061034d57610100808354040283529182019161036f565b820191906000526020600020905b81548152906001019060200180831161035b575b505091505090815260200160405180910390205492506001818154811061039257fe5b906000526020600020018054600181600116156101000203166002900480601f0160208091040260200160405190810160405280929190818152602001828054600181600116156101000203166002900480156104305780601f1061040557610100808354040283529160200191610430565b820191906000526020600020905b81548152906001019060200180831161041357829003601f168201915b505050505091505b808060010191505061025f565b50809250505090565b6002818051602081018201805184825260208301602085012081835280955050505050506000915090505481565b806000908051906020019061049292919061064a565b5060006002600060405180828054600181600116156101000203166002900480156104f45780601f106104d25761010080835404028352918201916104f4565b820191906000526020600020905b8154815290600101906020018083116104e0575b5050915050908152602001604051809103902054141561055b576001600090806001815401808255809150509060018203906000526020600020016000909192909190915090805460018160011615610100020316600290046105589291906106ca565b50505b60016002600060405180828054600181600116156101000203166002900480156105bc5780601f1061059a5761010080835404028352918201916105bc565b820191906000526020600020905b8154815290600101906020018083116105a8575b5050915050908152602001604051809103902054016002600060405180828054600181600116156101000203166002900480156106305780601f1061060e576101008083540402835291820191610630565b820191906000526020600020905b81548152906001019060200180831161061c575b505091505090815260200160405180910390208190555050565b828054600181600116156101000203166002900490600052602060002090601f016020900481019282601f1061068b57805160ff19168380011785556106b9565b828001600101855582156106b9579182015b828111156106b857825182559160200191906001019061069d565b5b5090506106c69190610751565b5090565b828054600181600116156101000203166002900490600052602060002090601f016020900481019282601f106107035780548555610740565b8280016001018555821561074057600052602060002091601f016020900482015b8281111561073f578254825591600101919060010190610724565b5b50905061074d9190610751565b5090565b61077391905b8082111561076f576000816000905550600101610757565b5090565b9056fea265627a7a7231582062bd4435bbe5300a102a81651c917a61110f269ca16da205c50306d452665b3e64736f6c63430005100032",
  "source": "// SPDX-License-Identifier: MIT\npragma solidity ^0.5.1;\n\ncontract Election {\n    string petName;\n    string[] petNames;\n    mapping(string => uint256) public voteResult;\n\n    function voting(string memory _petName) public {\n        petName = _petName;\n        if (voteResult[petName] == 0){\n            petNames.push(petName);\n        }\n        voteResult[petName] = voteResult[petName] + 1;\n    }\n\n    function getPetResult()\n        public\n        view\n        returns (string memory)\n    {\n        uint256 maxVote;\n        string memory maxVotePet;\n        for (uint i = 0; i < petNames.length; i++){\n            if (voteResult[petNames[i]] > maxVote){\n                maxVote = voteResult[petNames[i]];\n                maxVotePet = petNames[i];\n            }\n        }\n        return maxVotePet;\n    }\n}\n",
  "sourcePath": "/Users/yvonnesun/Desktop/pet-shop-box/contracts/Election.sol",
  "compiler": {
    "name": "solc",
    "version": "0.5.16+commit.9c3226ce.Emscripten.clang"
  },
  "schemaVersion": "3.4.11",
  "updatedAt": "2022-12-19T18:10:50.651Z",
  "networkType": "ethereum",
  "devdoc": {
    "methods": {}
  },
  "userdoc": {
    "methods": {}
  }
}