{
  "contractName": "Filter",
  "abi": [
    {
      "constant": true,
      "inputs": [
        {
          "internalType": "uint256",
          "name": "",
          "type": "uint256"
        }
      ],
      "name": "age",
      "outputs": [
        {
          "internalType": "uint256",
          "name": "",
          "type": "uint256"
        }
      ],
      "payable": false,
      "stateMutability": "view",
      "type": "function"
    },
    {
      "constant": true,
      "inputs": [
        {
          "internalType": "uint256",
          "name": "",
          "type": "uint256"
        }
      ],
      "name": "breed",
      "outputs": [
        {
          "internalType": "string",
          "name": "",
          "type": "string"
        }
      ],
      "payable": false,
      "stateMutability": "view",
      "type": "function"
    },
    {
      "constant": true,
      "inputs": [
        {
          "internalType": "uint256",
          "name": "",
          "type": "uint256"
        }
      ],
      "name": "location",
      "outputs": [
        {
          "internalType": "string",
          "name": "",
          "type": "string"
        }
      ],
      "payable": false,
      "stateMutability": "view",
      "type": "function"
    },
    {
      "constant": true,
      "inputs": [
        {
          "internalType": "uint256",
          "name": "",
          "type": "uint256"
        }
      ],
      "name": "sex",
      "outputs": [
        {
          "internalType": "string",
          "name": "",
          "type": "string"
        }
      ],
      "payable": false,
      "stateMutability": "view",
      "type": "function"
    },
    {
      "constant": true,
      "inputs": [
        {
          "internalType": "string",
          "name": "_breed",
          "type": "string"
        }
      ],
      "name": "filterByBreed",
      "outputs": [
        {
          "internalType": "uint256[16]",
          "name": "",
          "type": "uint256[16]"
        }
      ],
      "payable": false,
      "stateMutability": "view",
      "type": "function"
    },
    {
      "constant": true,
      "inputs": [
        {
          "internalType": "string",
          "name": "_sex",
          "type": "string"
        }
      ],
      "name": "filterBySex",
      "outputs": [
        {
          "internalType": "uint256[16]",
          "name": "",
          "type": "uint256[16]"
        }
      ],
      "payable": false,
      "stateMutability": "view",
      "type": "function"
    },
    {
      "constant": true,
      "inputs": [
        {
          "internalType": "uint256",
          "name": "_age",
          "type": "uint256"
        }
      ],
      "name": "filterByAge",
      "outputs": [
        {
          "internalType": "uint256[16]",
          "name": "",
          "type": "uint256[16]"
        }
      ],
      "payable": false,
      "stateMutability": "view",
      "type": "function"
    },
    {
      "constant": true,
      "inputs": [
        {
          "internalType": "string",
          "name": "_location",
          "type": "string"
        }
      ],
      "name": "filterByLocation",
      "outputs": [
        {
          "internalType": "uint256[16]",
          "name": "",
          "type": "uint256[16]"
        }
      ],
      "payable": false,
      "stateMutability": "view",
      "type": "function"
    },
    {
      "constant": false,
      "inputs": [],
      "name": "getPetInfos",
      "outputs": [],
      "payable": false,
      "stateMutability": "nonpayable",
      "type": "function"
    }
  ],
  "bytecode": "0x608060405234801561001057600080fd5b50611f9b806100206000396000f3fe608060405234801561001057600080fd5b50600436106100935760003560e01c80636ba61782116100665780636ba61782146101585780639ae1599114610188578063af9a1cd214610192578063c9990aa6146101c2578063dc237ad0146101f257610093565b8063197d4fc61461009857806324dabd94146100c85780632ebeeee6146100f85780636035b4d814610128575b600080fd5b6100b260048036036100ad9190810190611be2565b610222565b6040516100bf9190611dda565b60405180910390f35b6100e260048036036100dd9190810190611be2565b6102d2565b6040516100ef9190611dbe565b60405180910390f35b610112600480360361010d9190810190611ba1565b610358565b60405161011f9190611dbe565b60405180910390f35b610142600480360361013d9190810190611ba1565b610429565b60405161014f9190611dbe565b60405180910390f35b610172600480360361016d9190810190611be2565b6104fa565b60405161017f9190611dfc565b60405180910390f35b610190610512565b005b6101ac60048036036101a79190810190611be2565b611840565b6040516101b99190611dda565b60405180910390f35b6101dc60048036036101d79190810190611be2565b6118f0565b6040516101e99190611dda565b60405180910390f35b61020c60048036036102079190810190611ba1565b6119a0565b6040516102199190611dbe565b60405180910390f35b60026020528060005260406000206000915090508054600181600116156101000203166002900480601f0160208091040260200160405190810160405280929190818152602001828054600181600116156101000203166002900480156102ca5780601f1061029f576101008083540402835291602001916102ca565b820191906000526020600020905b8154815290600101906020018083116102ad57829003601f168201915b505050505081565b6102da611a70565b6102e2611a70565b60008090505b601081101561034e576001600082815260200190815260200160002054841415610327578082826010811061031957fe5b602002018181525050610341565b620f424082826010811061033757fe5b6020020181815250505b80806001019150506102e8565b8192505050919050565b610360611a70565b610368611a70565b60008090505b601081101561041f576002600082815260200190815260200160002060405160200161039a9190611da7565b60405160208183030381529060405280519060200120846040516020016103c19190611d90565b6040516020818303038152906040528051906020012014156103f857808282601081106103ea57fe5b602002018181525050610412565b620f424082826010811061040857fe5b6020020181815250505b808060010191505061036e565b8192505050919050565b610431611a70565b610439611a70565b60008090505b60108110156104f0576003600082815260200190815260200160002060405160200161046b9190611da7565b60405160208183030381529060405280519060200120846040516020016104929190611d90565b6040516020818303038152906040528051906020012014156104c957808282601081106104bb57fe5b6020020181815250506104e3565b620f42408282601081106104d957fe5b6020020181815250505b808060010191505061043f565b8192505050919050565b60016020528060005260406000206000915090505481565b6040518060400160405280601081526020017f53636f7474697368205465727269657200000000000000000000000000000000815250600080808152602001908152602001600020908051906020019061056d929190611a93565b506040518060400160405280601081526020017f53636f74746973682054657272696572000000000000000000000000000000008152506000806001815260200190815260200160002090805190602001906105ca929190611a93565b506040518060400160405280600e81526020017f4672656e63682042756c6c646f67000000000000000000000000000000000000815250600080600281526020019081526020016000209080519060200190610627929190611a93565b506040518060400160405280600581526020017f426f786572000000000000000000000000000000000000000000000000000000815250600080600381526020019081526020016000209080519060200190610684929190611a93565b506040518060400160405280600e81526020017f4672656e63682042756c6c646f670000000000000000000000000000000000008152506000806004815260200190815260200160002090805190602001906106e1929190611a93565b506040518060400160405280600e81526020017f4672656e63682042756c6c646f6700000000000000000000000000000000000081525060008060058152602001908152602001600020908051906020019061073e929190611a93565b506040518060400160405280601081526020017f476f6c64656e205265747269657665720000000000000000000000000000000081525060008060068152602001908152602001600020908051906020019061079b929190611a93565b506040518060400160405280601081526020017f476f6c64656e20526574726965766572000000000000000000000000000000008152506000806007815260200190815260200160002090805190602001906107f8929190611a93565b506040518060400160405280600d81526020017f46726563682042756c6c646f6700000000000000000000000000000000000000815250600080600881526020019081526020016000209080519060200190610855929190611a93565b506040518060400160405280600581526020017f426f7865720000000000000000000000000000000000000000000000000000008152506000806009815260200190815260200160002090805190602001906108b2929190611a93565b506040518060400160405280600581526020017f426f786572000000000000000000000000000000000000000000000000000000815250600080600a8152602001908152602001600020908051906020019061090f929190611a93565b506040518060400160405280601081526020017f53636f7474697368205465727269657200000000000000000000000000000000815250600080600b8152602001908152602001600020908051906020019061096c929190611a93565b506040518060400160405280600e81526020017f4672656e63682042756c6c646f67000000000000000000000000000000000000815250600080600c815260200190815260200160002090805190602001906109c9929190611a93565b506040518060400160405280601081526020017f476f6c64656e2052657472696576657200000000000000000000000000000000815250600080600d81526020019081526020016000209080519060200190610a26929190611a93565b506040518060400160405280601081526020017f476f6c64656e2052657472696576657200000000000000000000000000000000815250600080600e81526020019081526020016000209080519060200190610a83929190611a93565b506040518060400160405280601081526020017f476f6c64656e2052657472696576657200000000000000000000000000000000815250600080600f81526020019081526020016000209080519060200190610ae0929190611a93565b5060036001600080815260200190815260200160002081905550600360016000600181526020019081526020016000208190555060026001600060028152602001908152602001600020819055506002600160006003815260200190815260200160002081905550600260016000600481526020019081526020016000208190555060036001600060058152602001908152602001600020819055506003600160006006815260200190815260200160002081905550600360016000600781526020019081526020016000208190555060026001600060088152602001908152602001600020819055506003600160006009815260200190815260200160002081905550600260016000600a815260200190815260200160002081905550600360016000600b815260200190815260200160002081905550600360016000600c815260200190815260200160002081905550600460016000600d815260200190815260200160002081905550600260016000600e815260200190815260200160002081905550600260016000600f8152602001908152602001600020819055506040518060400160405280600481526020017f4769726c00000000000000000000000000000000000000000000000000000000815250600260008081526020019081526020016000209080519060200190610cdc929190611a93565b506040518060400160405280600481526020017f4769726c0000000000000000000000000000000000000000000000000000000081525060026000600181526020019081526020016000209080519060200190610d3a929190611a93565b506040518060400160405280600381526020017f426f79000000000000000000000000000000000000000000000000000000000081525060026000600281526020019081526020016000209080519060200190610d98929190611a93565b506040518060400160405280600481526020017f4769726c0000000000000000000000000000000000000000000000000000000081525060026000600381526020019081526020016000209080519060200190610df6929190611a93565b506040518060400160405280600481526020017f4769726c0000000000000000000000000000000000000000000000000000000081525060026000600481526020019081526020016000209080519060200190610e54929190611a93565b506040518060400160405280600481526020017f4769726c0000000000000000000000000000000000000000000000000000000081525060026000600581526020019081526020016000209080519060200190610eb2929190611a93565b506040518060400160405280600481526020017f4769726c0000000000000000000000000000000000000000000000000000000081525060026000600681526020019081526020016000209080519060200190610f10929190611a93565b506040518060400160405280600381526020017f426f79000000000000000000000000000000000000000000000000000000000081525060026000600781526020019081526020016000209080519060200190610f6e929190611a93565b506040518060400160405280600381526020017f426f79000000000000000000000000000000000000000000000000000000000081525060026000600881526020019081526020016000209080519060200190610fcc929190611a93565b506040518060400160405280600381526020017f426f7900000000000000000000000000000000000000000000000000000000008152506002600060098152602001908152602001600020908051906020019061102a929190611a93565b506040518060400160405280600381526020017f426f79000000000000000000000000000000000000000000000000000000000081525060026000600a81526020019081526020016000209080519060200190611088929190611a93565b506040518060400160405280600381526020017f426f79000000000000000000000000000000000000000000000000000000000081525060026000600b815260200190815260200160002090805190602001906110e6929190611a93565b506040518060400160405280600381526020017f426f79000000000000000000000000000000000000000000000000000000000081525060026000600c81526020019081526020016000209080519060200190611144929190611a93565b506040518060400160405280600381526020017f426f79000000000000000000000000000000000000000000000000000000000081525060026000600d815260200190815260200160002090805190602001906111a2929190611a93565b506040518060400160405280600381526020017f426f79000000000000000000000000000000000000000000000000000000000081525060026000600e81526020019081526020016000209080519060200190611200929190611a93565b506040518060400160405280600381526020017f426f79000000000000000000000000000000000000000000000000000000000081525060026000600f8152602001908152602001600020908051906020019061125e929190611a93565b506040518060400160405280600d81526020017f4c6973636f20416c6162616d61000000000000000000000000000000000000008152506003600080815260200190815260200160002090805190602001906112bb929190611a93565b506040518060400160405280601881526020017f546f6f6c6576696c6c6520576573742056697267696e6961000000000000000081525060036000600181526020019081526020016000209080519060200190611319929190611a93565b506040518060400160405280600e81526020017f467265656275726e20496461686f00000000000000000000000000000000000081525060036000600281526020019081526020016000209080519060200190611377929190611a93565b506040518060400160405280601281526020017f43616d61732050656e6e73796c76616e69610000000000000000000000000000815250600360006003815260200190815260200160002090805190602001906113d5929190611a93565b506040518060400160405280601381526020017f47657262657220536f7574682044616b6f74610000000000000000000000000081525060036000600481526020019081526020016000209080519060200190611433929190611a93565b506040518060400160405280601281526020017f496e6e7362726f6f6b20496c6c696e6f6973000000000000000000000000000081525060036000600581526020019081526020016000209080519060200190611491929190611a93565b506040518060400160405280601081526020017f536f7564616e204c6f75697369616e6100000000000000000000000000000000815250600360006006815260200190815260200160002090805190602001906114ef929190611a93565b506040518060400160405280601181526020017f4a61636b736f6e77616c642050616c61750000000000000000000000000000008152506003600060078152602001908152602001600020908051906020019061154d929190611a93565b506040518060400160405280600f81526020017f486f6e6f6c756c75204861776169690000000000000000000000000000000000815250600360006008815260200190815260200160002090805190602001906115ab929190611a93565b506040518060400160405280600c81526020017f4d617468656e792055746168000000000000000000000000000000000000000081525060036000600981526020019081526020016000209080519060200190611609929190611a93565b506040518060400160405280600d81526020017f547968656520496e6469616e610000000000000000000000000000000000000081525060036000600a81526020019081526020016000209080519060200190611667929190611a93565b506040518060400160405280600f81526020017f57696e64736f72204d6f6e74616e61000000000000000000000000000000000081525060036000600b815260200190815260200160002090805190602001906116c5929190611a93565b506040518060400160405280601181526020017f4b696e6773746f776e65204e657661646100000000000000000000000000000081525060036000600c81526020019081526020016000209080519060200190611723929190611a93565b506040518060400160405280601581526020017f53756c74616e61204d617373616368757365747473000000000000000000000081525060036000600d81526020019081526020016000209080519060200190611781929190611a93565b506040518060400160405280601181526020017f42726f61646c616e6473204f7265676f6e00000000000000000000000000000081525060036000600e815260200190815260200160002090805190602001906117df929190611a93565b506040518060400160405280600e81526020017f4461776e20576973636f6e73696e00000000000000000000000000000000000081525060036000600f8152602001908152602001600020908051906020019061183d929190611a93565b50565b60006020528060005260406000206000915090508054600181600116156101000203166002900480601f0160208091040260200160405190810160405280929190818152602001828054600181600116156101000203166002900480156118e85780601f106118bd576101008083540402835291602001916118e8565b820191906000526020600020905b8154815290600101906020018083116118cb57829003601f168201915b505050505081565b60036020528060005260406000206000915090508054600181600116156101000203166002900480601f0160208091040260200160405190810160405280929190818152602001828054600181600116156101000203166002900480156119985780601f1061196d57610100808354040283529160200191611998565b820191906000526020600020905b81548152906001019060200180831161197b57829003601f168201915b505050505081565b6119a8611a70565b6119b0611a70565b60008090505b6010811015611a66576000808281526020019081526020016000206040516020016119e19190611da7565b6040516020818303038152906040528051906020012084604051602001611a089190611d90565b604051602081830303815290604052805190602001201415611a3f5780828260108110611a3157fe5b602002018181525050611a59565b620f4240828260108110611a4f57fe5b6020020181815250505b80806001019150506119b6565b8192505050919050565b604051806102000160405280601090602082028038833980820191505090505090565b828054600181600116156101000203166002900490600052602060002090601f016020900481019282601f10611ad457805160ff1916838001178555611b02565b82800160010185558215611b02579182015b82811115611b01578251825591602001919060010190611ae6565b5b509050611b0f9190611b13565b5090565b611b3591905b80821115611b31576000816000905550600101611b19565b5090565b90565b600082601f830112611b4957600080fd5b8135611b5c611b5782611e44565b611e17565b91508082526020830160208301858383011115611b7857600080fd5b611b83838284611eee565b50505092915050565b600081359050611b9b81611f41565b92915050565b600060208284031215611bb357600080fd5b600082013567ffffffffffffffff811115611bcd57600080fd5b611bd984828501611b38565b91505092915050565b600060208284031215611bf457600080fd5b6000611c0284828501611b8c565b91505092915050565b6000611c178383611d72565b60208301905092915050565b611c2c81611e8f565b611c368184611ebd565b9250611c4182611e70565b8060005b83811015611c72578151611c598782611c0b565b9650611c6483611eb0565b925050600181019050611c45565b505050505050565b6000611c8582611ea5565b611c8f8185611ed9565b9350611c9f818560208601611efd565b80840191505092915050565b6000611cb682611e9a565b611cc08185611ec8565b9350611cd0818560208601611efd565b611cd981611f30565b840191505092915050565b600081546001811660008114611d015760018114611d2657611d6a565b607f6002830416611d128187611ed9565b955060ff1983168652808601935050611d6a565b60028204611d348187611ed9565b9550611d3f85611e7a565b60005b82811015611d6157815481890152600182019150602081019050611d42565b82880195505050505b505092915050565b611d7b81611ee4565b82525050565b611d8a81611ee4565b82525050565b6000611d9c8284611c7a565b915081905092915050565b6000611db38284611ce4565b915081905092915050565b600061020082019050611dd46000830184611c23565b92915050565b60006020820190508181036000830152611df48184611cab565b905092915050565b6000602082019050611e116000830184611d81565b92915050565b6000604051905081810181811067ffffffffffffffff82111715611e3a57600080fd5b8060405250919050565b600067ffffffffffffffff821115611e5b57600080fd5b601f19601f8301169050602081019050919050565b6000819050919050565b60008190508160005260206000209050919050565b600060109050919050565b600081519050919050565b600081519050919050565b6000602082019050919050565b600081905092915050565b600082825260208201905092915050565b600081905092915050565b6000819050919050565b82818337600083830152505050565b60005b83811015611f1b578082015181840152602081019050611f00565b83811115611f2a576000848401525b50505050565b6000601f19601f8301169050919050565b611f4a81611ee4565b8114611f5557600080fd5b5056fea365627a7a7231582050aa91b81e60c4862496f028a261b22509dd6b96b243ab9a9b580148e8efd18b6c6578706572696d656e74616cf564736f6c63430005100040",
  "source": "pragma solidity ^0.5.1;\npragma experimental ABIEncoderV2;\nimport \"truffle/Console.sol\";\n\n\ncontract Filter{\n    mapping (uint => string) public breed;\n    mapping (uint => uint) public age;\n    mapping (uint => string) public sex; \n    mapping (uint => string) public location; \n\n    function filterByBreed(string memory _breed) public view returns (uint[16] memory) {\n        uint[16] memory petIdList;\n        uint i;\n        for (i = 0; i < 16; i++) {\n            if (keccak256(abi.encodePacked(_breed)) == keccak256(abi.encodePacked(breed[i]))){\n                petIdList[i] = i;\n            } else {\n                petIdList[i] = 1000000;\n            }\n        }\n        return petIdList;\n    }\n\n    function filterBySex(string memory _sex) public view returns (uint[16] memory) {\n        uint[16] memory petIdList;\n        uint i;\n        for (i = 0; i < 16; i++) {\n            if (keccak256(abi.encodePacked(_sex)) == keccak256(abi.encodePacked(sex[i]))){\n                petIdList[i] = i;\n            } else {\n                petIdList[i] = 1000000;\n            }\n        }\n        return petIdList;\n    }\n\n    function filterByAge(uint _age) public view returns (uint[16] memory) {\n        uint[16] memory petIdList;\n        uint i;\n        for (i = 0; i < 16; i++) {\n            if (_age == age[i]){\n                petIdList[i] = i;\n            } else {\n                petIdList[i] = 1000000;\n            }\n        }\n        return petIdList;\n    }\n\n    function filterByLocation(string memory _location) public view returns (uint[16] memory) {\n\n        uint[16] memory petIdList;\n        uint i;\n        for (i = 0; i < 16; i++) {\n            if (keccak256(abi.encodePacked(_location)) == keccak256(abi.encodePacked(location[i]))){\n                petIdList[i] = i;\n            } else {\n                petIdList[i] = 1000000;\n            }\n        }\n        return petIdList;\n    }\n\n\n\n    \n    function getPetInfos() public {\n        breed[0] = \"Scottish Terrier\";\n        breed[1] = \"Scottish Terrier\";\n        breed[2] = \"French Bulldog\";\n        breed[3] = \"Boxer\";\n        breed[4] = \"French Bulldog\";\n        breed[5] = \"French Bulldog\";\n        breed[6] = \"Golden Retriever\";\n        breed[7] = \"Golden Retriever\";\n        breed[8] = \"Frech Bulldog\";\n        breed[9] = \"Boxer\";\n        breed[10] = \"Boxer\";\n        breed[11] = \"Scottish Terrier\";\n        breed[12] = \"French Bulldog\";\n        breed[13] = \"Golden Retriever\";\n        breed[14] = \"Golden Retriever\";\n        breed[15] = \"Golden Retriever\";\n        age[0] = 3;\n        age[1] = 3;\n        age[2] = 2;\n        age[3] = 2;\n        age[4] = 2;\n        age[5] = 3;\n        age[6] = 3;\n        age[7] = 3;\n        age[8] = 2;\n        age[9] = 3;\n        age[10] = 2;\n        age[11] = 3;\n        age[12] = 3;\n        age[13] = 4;\n        age[14] = 2;\n        age[15] = 2;\n        sex[0] = \"Girl\";\n        sex[1] = \"Girl\";\n        sex[2] = \"Boy\";\n        sex[3] = \"Girl\";\n        sex[4] = \"Girl\";\n        sex[5] = \"Girl\";\n        sex[6] = \"Girl\";\n        sex[7] = \"Boy\";\n        sex[8] = \"Boy\";\n        sex[9] = \"Boy\";\n        sex[10] = \"Boy\";\n        sex[11] = \"Boy\";\n        sex[12] = \"Boy\";\n        sex[13] = \"Boy\";\n        sex[14] = \"Boy\";\n        sex[15] = \"Boy\";\n        location[0] = \"Lisco Alabama\";\n        location[1] = \"Tooleville West Virginia\";\n        location[2] = \"Freeburn Idaho\";\n        location[3] = \"Camas Pennsylvania\";\n        location[4] = \"Gerber South Dakota\";\n        location[5] = \"Innsbrook Illinois\";\n        location[6] = \"Soudan Louisiana\";\n        location[7] = \"Jacksonwald Palau\";\n        location[8] = \"Honolulu Hawaii\";\n        location[9] = \"Matheny Utah\";\n        location[10] = \"Tyhee Indiana\";\n        location[11] = \"Windsor Montana\";\n        location[12] = \"Kingstowne Nevada\";\n        location[13] = \"Sultana Massachusetts\";\n        location[14] = \"Broadlands Oregon\";\n        location[15] = \"Dawn Wisconsin\";\n    }\n}",
  "sourcePath": "/Users/yvonnesun/Desktop/pet-shop-box/contracts/Filter.sol",
  "compiler": {
    "name": "solc",
    "version": "0.5.16+commit.9c3226ce.Emscripten.clang"
  },
  "schemaVersion": "3.4.11",
  "updatedAt": "2022-12-19T23:58:18.562Z",
  "devdoc": {
    "methods": {}
  },
  "userdoc": {
    "methods": {}
  }
}