{
  "contractName": "Filter",
  "abi": [
    {
      "constant": true,
      "inputs": [
        {
          "internalType": "uint256",
          "name": "",
          "type": "uint256"
        }
      ],
      "name": "petAge",
      "outputs": [
        {
          "internalType": "uint256",
          "name": "",
          "type": "uint256"
        }
      ],
      "payable": false,
      "stateMutability": "view",
      "type": "function"
    },
    {
      "constant": true,
      "inputs": [
        {
          "internalType": "uint256",
          "name": "",
          "type": "uint256"
        }
      ],
      "name": "petBreed",
      "outputs": [
        {
          "internalType": "string",
          "name": "",
          "type": "string"
        }
      ],
      "payable": false,
      "stateMutability": "view",
      "type": "function"
    },
    {
      "constant": true,
      "inputs": [
        {
          "internalType": "uint256",
          "name": "",
          "type": "uint256"
        }
      ],
      "name": "petSex",
      "outputs": [
        {
          "internalType": "string",
          "name": "",
          "type": "string"
        }
      ],
      "payable": false,
      "stateMutability": "view",
      "type": "function"
    },
    {
      "constant": true,
      "inputs": [
        {
          "internalType": "string",
          "name": "_breed",
          "type": "string"
        }
      ],
      "name": "filterByBreed",
      "outputs": [
        {
          "internalType": "uint256[16]",
          "name": "",
          "type": "uint256[16]"
        }
      ],
      "payable": false,
      "stateMutability": "view",
      "type": "function"
    },
    {
      "constant": true,
      "inputs": [
        {
          "internalType": "string",
          "name": "_sex",
          "type": "string"
        }
      ],
      "name": "filterBySex",
      "outputs": [
        {
          "internalType": "uint256[16]",
          "name": "",
          "type": "uint256[16]"
        }
      ],
      "payable": false,
      "stateMutability": "view",
      "type": "function"
    },
    {
      "constant": true,
      "inputs": [
        {
          "internalType": "uint256",
          "name": "_age",
          "type": "uint256"
        }
      ],
      "name": "filterByAge",
      "outputs": [
        {
          "internalType": "uint256[16]",
          "name": "",
          "type": "uint256[16]"
        }
      ],
      "payable": false,
      "stateMutability": "view",
      "type": "function"
    },
    {
      "constant": false,
      "inputs": [],
      "name": "getPetInfos",
      "outputs": [],
      "payable": false,
      "stateMutability": "nonpayable",
      "type": "function"
    }
  ],
  "bytecode": "0x608060405234801561001057600080fd5b506117c2806100206000396000f3fe608060405234801561001057600080fd5b506004361061007d5760003560e01c806369b30e951161005b57806369b30e95146101125780638aee1344146101425780639ae1599114610172578063dc237ad01461017c5761007d565b80631e1834921461008257806324dabd94146100b25780632ebeeee6146100e2575b600080fd5b61009c60048036036100979190810190611409565b6101ac565b6040516100a99190611623565b60405180910390f35b6100cc60048036036100c79190810190611409565b6101c4565b6040516100d991906115e5565b60405180910390f35b6100fc60048036036100f791908101906113c8565b610249565b60405161010991906115e5565b60405180910390f35b61012c60048036036101279190810190611409565b610319565b6040516101399190611601565b60405180910390f35b61015c60048036036101579190810190611409565b6103c9565b6040516101699190611601565b60405180910390f35b61017a610479565b005b610196600480360361019191908101906113c8565b6111c8565b6040516101a391906115e5565b60405180910390f35b60016020528060005260406000206000915090505481565b6101cc611297565b6101d4611297565b60008090505b601081101561023f576001600082815260200190815260200160002054841415610219578082826010811061020b57fe5b602002018181525050610232565b61029a82826010811061022857fe5b6020020181815250505b80806001019150506101da565b8192505050919050565b610251611297565b610259611297565b60008090505b601081101561030f576002600082815260200190815260200160002060405160200161028b91906115ce565b60405160208183030381529060405280519060200120846040516020016102b291906115b7565b6040516020818303038152906040528051906020012014156102e957808282601081106102db57fe5b602002018181525050610302565b61029a8282601081106102f857fe5b6020020181815250505b808060010191505061025f565b8192505050919050565b60026020528060005260406000206000915090508054600181600116156101000203166002900480601f0160208091040260200160405190810160405280929190818152602001828054600181600116156101000203166002900480156103c15780601f10610396576101008083540402835291602001916103c1565b820191906000526020600020905b8154815290600101906020018083116103a457829003601f168201915b505050505081565b60006020528060005260406000206000915090508054600181600116156101000203166002900480601f0160208091040260200160405190810160405280929190818152602001828054600181600116156101000203166002900480156104715780601f1061044657610100808354040283529160200191610471565b820191906000526020600020905b81548152906001019060200180831161045457829003601f168201915b505050505081565b6040518060400160405280601081526020017f53636f747469736820546572726965720000000000000000000000000000000081525060008080815260200190815260200160002090805190602001906104d49291906112ba565b506040518060400160405280601081526020017f53636f74746973682054657272696572000000000000000000000000000000008152506000806001815260200190815260200160002090805190602001906105319291906112ba565b506040518060400160405280600e81526020017f4672656e63682042756c6c646f6700000000000000000000000000000000000081525060008060028152602001908152602001600020908051906020019061058e9291906112ba565b506040518060400160405280600581526020017f426f7865720000000000000000000000000000000000000000000000000000008152506000806003815260200190815260200160002090805190602001906105eb9291906112ba565b506040518060400160405280600e81526020017f4672656e63682042756c6c646f670000000000000000000000000000000000008152506000806004815260200190815260200160002090805190602001906106489291906112ba565b506040518060400160405280600e81526020017f4672656e63682042756c6c646f670000000000000000000000000000000000008152506000806005815260200190815260200160002090805190602001906106a59291906112ba565b506040518060400160405280601081526020017f476f6c64656e20526574726965766572000000000000000000000000000000008152506000806006815260200190815260200160002090805190602001906107029291906112ba565b506040518060400160405280601081526020017f476f6c64656e205265747269657665720000000000000000000000000000000081525060008060078152602001908152602001600020908051906020019061075f9291906112ba565b506040518060400160405280600d81526020017f46726563682042756c6c646f67000000000000000000000000000000000000008152506000806008815260200190815260200160002090805190602001906107bc9291906112ba565b506040518060400160405280600581526020017f426f7865720000000000000000000000000000000000000000000000000000008152506000806009815260200190815260200160002090805190602001906108199291906112ba565b506040518060400160405280600581526020017f426f786572000000000000000000000000000000000000000000000000000000815250600080600a815260200190815260200160002090805190602001906108769291906112ba565b506040518060400160405280601081526020017f53636f7474697368205465727269657200000000000000000000000000000000815250600080600b815260200190815260200160002090805190602001906108d39291906112ba565b506040518060400160405280600e81526020017f4672656e63682042756c6c646f67000000000000000000000000000000000000815250600080600c815260200190815260200160002090805190602001906109309291906112ba565b506040518060400160405280601081526020017f476f6c64656e2052657472696576657200000000000000000000000000000000815250600080600d8152602001908152602001600020908051906020019061098d9291906112ba565b506040518060400160405280601081526020017f476f6c64656e2052657472696576657200000000000000000000000000000000815250600080600e815260200190815260200160002090805190602001906109ea9291906112ba565b506040518060400160405280601081526020017f476f6c64656e2052657472696576657200000000000000000000000000000000815250600080600f81526020019081526020016000209080519060200190610a479291906112ba565b5060036001600080815260200190815260200160002081905550600360016000600181526020019081526020016000208190555060026001600060028152602001908152602001600020819055506002600160006003815260200190815260200160002081905550600260016000600481526020019081526020016000208190555060036001600060058152602001908152602001600020819055506003600160006006815260200190815260200160002081905550600360016000600781526020019081526020016000208190555060026001600060088152602001908152602001600020819055506003600160006009815260200190815260200160002081905550600260016000600a815260200190815260200160002081905550600360016000600b815260200190815260200160002081905550600360016000600c815260200190815260200160002081905550600460016000600d815260200190815260200160002081905550600260016000600e815260200190815260200160002081905550600260016000600f8152602001908152602001600020819055506040518060400160405280600481526020017f4769726c00000000000000000000000000000000000000000000000000000000815250600260008081526020019081526020016000209080519060200190610c439291906112ba565b506040518060400160405280600481526020017f4769726c0000000000000000000000000000000000000000000000000000000081525060026000600181526020019081526020016000209080519060200190610ca19291906112ba565b506040518060400160405280600381526020017f426f79000000000000000000000000000000000000000000000000000000000081525060026000600281526020019081526020016000209080519060200190610cff9291906112ba565b506040518060400160405280600481526020017f4769726c0000000000000000000000000000000000000000000000000000000081525060026000600381526020019081526020016000209080519060200190610d5d9291906112ba565b506040518060400160405280600481526020017f4769726c0000000000000000000000000000000000000000000000000000000081525060026000600481526020019081526020016000209080519060200190610dbb9291906112ba565b506040518060400160405280600481526020017f4769726c0000000000000000000000000000000000000000000000000000000081525060026000600581526020019081526020016000209080519060200190610e199291906112ba565b506040518060400160405280600481526020017f4769726c0000000000000000000000000000000000000000000000000000000081525060026000600681526020019081526020016000209080519060200190610e779291906112ba565b506040518060400160405280600381526020017f426f79000000000000000000000000000000000000000000000000000000000081525060026000600781526020019081526020016000209080519060200190610ed59291906112ba565b506040518060400160405280600381526020017f426f79000000000000000000000000000000000000000000000000000000000081525060026000600881526020019081526020016000209080519060200190610f339291906112ba565b506040518060400160405280600381526020017f426f79000000000000000000000000000000000000000000000000000000000081525060026000600981526020019081526020016000209080519060200190610f919291906112ba565b506040518060400160405280600381526020017f426f79000000000000000000000000000000000000000000000000000000000081525060026000600a81526020019081526020016000209080519060200190610fef9291906112ba565b506040518060400160405280600381526020017f426f79000000000000000000000000000000000000000000000000000000000081525060026000600b8152602001908152602001600020908051906020019061104d9291906112ba565b506040518060400160405280600381526020017f426f79000000000000000000000000000000000000000000000000000000000081525060026000600c815260200190815260200160002090805190602001906110ab9291906112ba565b506040518060400160405280600381526020017f426f79000000000000000000000000000000000000000000000000000000000081525060026000600d815260200190815260200160002090805190602001906111099291906112ba565b506040518060400160405280600381526020017f426f79000000000000000000000000000000000000000000000000000000000081525060026000600e815260200190815260200160002090805190602001906111679291906112ba565b506040518060400160405280600381526020017f426f79000000000000000000000000000000000000000000000000000000000081525060026000600f815260200190815260200160002090805190602001906111c59291906112ba565b50565b6111d0611297565b6111d8611297565b60008090505b601081101561128d5760008082815260200190815260200160002060405160200161120991906115ce565b604051602081830303815290604052805190602001208460405160200161123091906115b7565b604051602081830303815290604052805190602001201415611267578082826010811061125957fe5b602002018181525050611280565b61029a82826010811061127657fe5b6020020181815250505b80806001019150506111de565b8192505050919050565b604051806102000160405280601090602082028038833980820191505090505090565b828054600181600116156101000203166002900490600052602060002090601f016020900481019282601f106112fb57805160ff1916838001178555611329565b82800160010185558215611329579182015b8281111561132857825182559160200191906001019061130d565b5b509050611336919061133a565b5090565b61135c91905b80821115611358576000816000905550600101611340565b5090565b90565b600082601f83011261137057600080fd5b813561138361137e8261166b565b61163e565b9150808252602083016020830185838301111561139f57600080fd5b6113aa838284611715565b50505092915050565b6000813590506113c281611768565b92915050565b6000602082840312156113da57600080fd5b600082013567ffffffffffffffff8111156113f457600080fd5b6114008482850161135f565b91505092915050565b60006020828403121561141b57600080fd5b6000611429848285016113b3565b91505092915050565b600061143e8383611599565b60208301905092915050565b611453816116b6565b61145d81846116e4565b925061146882611697565b8060005b838110156114995781516114808782611432565b965061148b836116d7565b92505060018101905061146c565b505050505050565b60006114ac826116cc565b6114b68185611700565b93506114c6818560208601611724565b80840191505092915050565b60006114dd826116c1565b6114e781856116ef565b93506114f7818560208601611724565b61150081611757565b840191505092915050565b600081546001811660008114611528576001811461154d57611591565b607f60028304166115398187611700565b955060ff1983168652808601935050611591565b6002820461155b8187611700565b9550611566856116a1565b60005b8281101561158857815481890152600182019150602081019050611569565b82880195505050505b505092915050565b6115a28161170b565b82525050565b6115b18161170b565b82525050565b60006115c382846114a1565b915081905092915050565b60006115da828461150b565b915081905092915050565b6000610200820190506115fb600083018461144a565b92915050565b6000602082019050818103600083015261161b81846114d2565b905092915050565b600060208201905061163860008301846115a8565b92915050565b6000604051905081810181811067ffffffffffffffff8211171561166157600080fd5b8060405250919050565b600067ffffffffffffffff82111561168257600080fd5b601f19601f8301169050602081019050919050565b6000819050919050565b60008190508160005260206000209050919050565b600060109050919050565b600081519050919050565b600081519050919050565b6000602082019050919050565b600081905092915050565b600082825260208201905092915050565b600081905092915050565b6000819050919050565b82818337600083830152505050565b60005b83811015611742578082015181840152602081019050611727565b83811115611751576000848401525b50505050565b6000601f19601f8301169050919050565b6117718161170b565b811461177c57600080fd5b5056fea365627a7a72315820d9dd973278af5b598efcfb82d15353ed96e2aea7a6cab3dc7e455679dfb31af56c6578706572696d656e74616cf564736f6c63430005100040",
  "source": "pragma solidity ^0.5.1;\npragma experimental ABIEncoderV2;\n\ncontract Filter{\n    mapping (uint => string) public petBreed;\n    mapping (uint => uint) public petAge;\n    mapping (uint => string) public petSex; \n\n    function filterByBreed(string memory _breed) public view returns (uint[16] memory) {\n        uint[16] memory petIdList;\n        uint i;\n        for (i = 0; i < 16; i++) {\n            if (keccak256(abi.encodePacked(_breed)) == keccak256(abi.encodePacked(petBreed[i]))){\n                petIdList[i] = i;\n            } else {\n                petIdList[i] = 666;\n            }\n        }\n        return petIdList;\n    }\n\n    function filterBySex(string memory _sex) public view returns (uint[16] memory) {\n        uint[16] memory petIdList;\n        uint i;\n        for (i = 0; i < 16; i++) {\n            if (keccak256(abi.encodePacked(_sex)) == keccak256(abi.encodePacked(petSex[i]))){\n                petIdList[i] = i;\n            } else {\n                petIdList[i] = 666;\n            }\n        }\n        return petIdList;\n    }\n\n    function filterByAge(uint _age) public view returns (uint[16] memory) {\n        uint[16] memory petIdList;\n        uint i;\n        for (i = 0; i < 16; i++) {\n            if (_age == petAge[i]){\n                petIdList[i] = i;\n            } else {\n                petIdList[i] = 666;\n            }\n        }\n        return petIdList;\n    }\n    \n    function getPetInfos() public {\n        petBreed[0] = \"Scottish Terrier\";\n        petBreed[1] = \"Scottish Terrier\";\n        petBreed[2] = \"French Bulldog\";\n        petBreed[3] = \"Boxer\";\n        petBreed[4] = \"French Bulldog\";\n        petBreed[5] = \"French Bulldog\";\n        petBreed[6] = \"Golden Retriever\";\n        petBreed[7] = \"Golden Retriever\";\n        petBreed[8] = \"Frech Bulldog\";\n        petBreed[9] = \"Boxer\";\n        petBreed[10] = \"Boxer\";\n        petBreed[11] = \"Scottish Terrier\";\n        petBreed[12] = \"French Bulldog\";\n        petBreed[13] = \"Golden Retriever\";\n        petBreed[14] = \"Golden Retriever\";\n        petBreed[15] = \"Golden Retriever\";\n        petAge[0] = 3;\n        petAge[1] = 3;\n        petAge[2] = 2;\n        petAge[3] = 2;\n        petAge[4] = 2;\n        petAge[5] = 3;\n        petAge[6] = 3;\n        petAge[7] = 3;\n        petAge[8] = 2;\n        petAge[9] = 3;\n        petAge[10] = 2;\n        petAge[11] = 3;\n        petAge[12] = 3;\n        petAge[13] = 4;\n        petAge[14] = 2;\n        petAge[15] = 2;\n        petSex[0] = \"Girl\";\n        petSex[1] = \"Girl\";\n        petSex[2] = \"Boy\";\n        petSex[3] = \"Girl\";\n        petSex[4] = \"Girl\";\n        petSex[5] = \"Girl\";\n        petSex[6] = \"Girl\";\n        petSex[7] = \"Boy\";\n        petSex[8] = \"Boy\";\n        petSex[9] = \"Boy\";\n        petSex[10] = \"Boy\";\n        petSex[11] = \"Boy\";\n        petSex[12] = \"Boy\";\n        petSex[13] = \"Boy\";\n        petSex[14] = \"Boy\";\n        petSex[15] = \"Boy\";\n    }\n}",
  "sourcePath": "/Users/yvonnesun/Desktop/pet-shop-box/contracts/Filter.sol",
  "compiler": {
    "name": "solc",
    "version": "0.5.16+commit.9c3226ce.Emscripten.clang"
  },
  "schemaVersion": "3.4.11",
  "updatedAt": "2022-12-19T18:10:50.655Z",
  "networkType": "ethereum",
  "devdoc": {
    "methods": {}
  },
  "userdoc": {
    "methods": {}
  }
}